Component: ARM Compiler 5.06 update 5 (build 528) Tool: armlink [4d35e2]

==============================================================================

Section Cross References

    startup_stm32f10x_md.o(RESET) refers to startup_stm32f10x_md.o(STACK) for __initial_sp
    startup_stm32f10x_md.o(RESET) refers to startup_stm32f10x_md.o(.text) for Reset_Handler
    startup_stm32f10x_md.o(RESET) refers to stm32f10x_it.o(i.NMI_Handler) for NMI_Handler
    startup_stm32f10x_md.o(RESET) refers to stm32f10x_it.o(i.HardFault_Handler) for HardFault_Handler
    startup_stm32f10x_md.o(RESET) refers to stm32f10x_it.o(i.MemManage_Handler) for MemManage_Handler
    startup_stm32f10x_md.o(RESET) refers to stm32f10x_it.o(i.BusFault_Handler) for BusFault_Handler
    startup_stm32f10x_md.o(RESET) refers to stm32f10x_it.o(i.UsageFault_Handler) for UsageFault_Handler
    startup_stm32f10x_md.o(RESET) refers to stm32f10x_it.o(i.SVC_Handler) for SVC_Handler
    startup_stm32f10x_md.o(RESET) refers to stm32f10x_it.o(i.DebugMon_Handler) for DebugMon_Handler
    startup_stm32f10x_md.o(RESET) refers to stm32f10x_it.o(i.PendSV_Handler) for PendSV_Handler
    startup_stm32f10x_md.o(RESET) refers to stm32f10x_it.o(i.SysTick_Handler) for SysTick_Handler
    startup_stm32f10x_md.o(RESET) refers to timer.o(i.TIM2_IRQHandler) for TIM2_IRQHandler
    startup_stm32f10x_md.o(RESET) refers to cs.o(i.TIM3_IRQHandler) for TIM3_IRQHandler
    startup_stm32f10x_md.o(RESET) refers to myusart.o(i.USART1_IRQHandler) for USART1_IRQHandler
    startup_stm32f10x_md.o(.text) refers to system_stm32f10x.o(i.SystemInit) for SystemInit
    startup_stm32f10x_md.o(.text) refers to entry.o(.ARM.Collect$$$$00000000) for __main
    system_stm32f10x.o(i.SetSysClock) refers to system_stm32f10x.o(i.SetSysClockTo72) for SetSysClockTo72
    system_stm32f10x.o(i.SystemCoreClockUpdate) refers to system_stm32f10x.o(.data) for SystemCoreClock
==============================================================================

Removing Unused input sections from the image.

    Removing core_cm3.o(.emb_text), (32 bytes).
    Removing startup_stm32f10x_md.o(HEAP), (512 bytes).
    Removing system_stm32f10x.o(i.SystemCoreClockUpdate), (164 bytes).
    Removing system_stm32f10x.o(.data), (20 bytes).
    Removing misc.o(i.NVIC_SetVectorTable), (20 bytes).
    Removing misc.o(i.NVIC_SystemLPConfig), (32 bytes).
    Removing misc.o(i.SysTick_CLKSourceConfig), (40 bytes).
    Removing stm32f10x_adc.o(i.ADC_AnalogWatchdogCmd), (20 bytes).
    Removing stm32f10x_adc.o(i.ADC_AnalogWatchdogSingleChannelConfig), (16 bytes).
    Removing stm32f10x_adc.o(i.ADC_AnalogWatchdogThresholdsConfig), (6 bytes).
    Removing stm32f10x_adc.o(i.ADC_AutoInjectedConvCmd), (22 bytes).
    Removing stm32f10x_adc.o(i.ADC_ClearFlag), (6 bytes).
    Removing stm32f10x_adc.o(i.ADC_ClearITPendingBit), (10 bytes).
    Removing stm32f10x_adc.o(i.ADC_DMACmd), (22 bytes).
    Removing stm32f10x_adc.o(i.ADC_DiscModeChannelCountConfig), (24 bytes).
    Removing stm32f10x_adc.o(i.ADC_DiscModeCmd), (22 bytes).
    Removing stm32f10x_adc.o(i.ADC_ExternalTrigConvCmd), (22 bytes).
    Removing stm32f10x_adc.o(i.ADC_ExternalTrigInjectedConvCmd), (22 bytes).
==============================================================================

Image Symbol Table

    Local Symbols

    Symbol Name                              Value     Ov Type        Size  Object(Section)

    ../clib/microlib/division.c              0x00000000   Number         0  uldiv.o ABSOLUTE
    ../clib/microlib/division.c              0x00000000   Number         0  uidiv.o ABSOLUTE
    ../clib/microlib/init/entry.s            0x00000000   Number         0  entry10b.o ABSOLUTE
    ../clib/microlib/init/entry.s            0x00000000   Number         0  entry10a.o ABSOLUTE
    ../clib/microlib/init/entry.s            0x00000000   Number         0  entry2.o ABSOLUTE
    ../clib/microlib/init/entry.s            0x00000000   Number         0  entry5.o ABSOLUTE
    ../clib/microlib/init/entry.s            0x00000000   Number         0  entry9b.o ABSOLUTE
    ../clib/microlib/init/entry.s            0x00000000   Number         0  entry7b.o ABSOLUTE
    ../clib/microlib/init/entry.s            0x00000000   Number         0  entry.o ABSOLUTE
    ../clib/microlib/init/entry.s            0x00000000   Number         0  entry7a.o ABSOLUTE
    ../clib/microlib/init/entry.s            0x00000000   Number         0  entry8a.o ABSOLUTE
    ../clib/microlib/init/entry.s            0x00000000   Number         0  entry8b.o ABSOLUTE
    ../clib/microlib/init/entry.s            0x00000000   Number         0  entry9a.o ABSOLUTE
    ../clib/microlib/init/entry.s            0x00000000   Number         0  entry11b.o ABSOLUTE
    ../clib/microlib/init/entry.s            0x00000000   Number         0  entry11a.o ABSOLUTE
    ../clib/microlib/longlong.c              0x00000000   Number         0  llushr.o ABSOLUTE
    ../clib/microlib/longlong.c              0x00000000   Number         0  llsshr.o ABSOLUTE
    ../clib/microlib/longlong.c              0x00000000   Number         0  llshl.o ABSOLUTE
    ../clib/microlib/printf/printf.c         0x00000000   Number         0  printf2.o ABSOLUTE
    ../clib/microlib/printf/printf.c         0x00000000   Number         0  printf1.o ABSOLUTE
    ../clib/microlib/printf/printf.c         0x00000000   Number         0  printf0.o ABSOLUTE
    ../clib/microlib/printf/printf.c         0x00000000   Number         0  printfb.o ABSOLUTE
    ../clib/microlib/printf/printf.c         0x00000000   Number         0  printfa.o ABSOLUTE
    ../clib/microlib/printf/printf.c         0x00000000   Number         0  printf8.o ABSOLUTE
    ../clib/microlib/printf/printf.c         0x00000000   Number         0  printf7.o ABSOLUTE
    ../clib/microlib/printf/printf.c         0x00000000   Number         0  printf6.o ABSOLUTE
    ../clib/microlib/printf/printf.c         0x00000000   Number         0  printf5.o ABSOLUTE
    ../clib/microlib/printf/printf.c         0x00000000   Number         0  printf4.o ABSOLUTE
    ../clib/microlib/printf/printf.c         0x00000000   Number         0  printf3.o ABSOLUTE
    ../clib/microlib/printf/stubs.s          0x00000000   Number         0  stubs.o ABSOLUTE
    ../clib/microlib/stdio/streams.c         0x00000000   Number         0  stdout.o ABSOLUTE
    ../clib/microlib/string/memset.c         0x00000000   Number         0  memseta.o ABSOLUTE
    ../clib/microlib/string/strcmp.c         0x00000000   Number         0  strcmp.o ABSOLUTE
    ../clib/microlib/string/strncmp.c        0x00000000   Number         0  strncmp.o ABSOLUTE
    ../clib/microlib/stubs.s                 0x00000000   Number         0  iusefp.o ABSOLUTE
    ../fplib/microlib/d2f.c                  0x00000000   Number         0  d2f.o ABSOLUTE
    ../fplib/microlib/fpadd.c                0x00000000   Number         0  fadd.o ABSOLUTE
    ../fplib/microlib/fpadd.c                0x00000000   Number         0  dadd.o ABSOLUTE
    ../fplib/microlib/fpdiv.c                0x00000000   Number         0  ddiv.o ABSOLUTE
    ../fplib/microlib/fpdiv.c                0x00000000   Number         0  fdiv.o ABSOLUTE
    ../fplib/microlib/fpepilogue.c           0x00000000   Number         0  depilogue.o ABSOLUTE
    ../fplib/microlib/fpepilogue.c           0x00000000   Number         0  fepilogue.o ABSOLUTE
    ../fplib/microlib/fpfix.c                0x00000000   Number         0  dfixul.o ABSOLUTE
    ../fplib/microlib/fpfix.c                0x00000000   Number         0  ffixi.o ABSOLUTE
    ../fplib/microlib/fpfix.c                0x00000000   Number         0  dfixi.o ABSOLUTE
    ../fplib/microlib/fpfix.c                0x00000000   Number         0  dfixui.o ABSOLUTE
    ../fplib/microlib/fpflt.c                0x00000000   Number         0  dflti.o ABSOLUTE
    ../fplib/microlib/fpflt.c                0x00000000   Number         0  dfltui.o ABSOLUTE
    ../fplib/microlib/fpmul.c                0x00000000   Number         0  dmul.o ABSOLUTE
    Hardware\AD.c                            0x00000000   Number         0  ad.o ABSOLUTE
    Hardware\CS.c                            0x00000000   Number         0  cs.o ABSOLUTE
    Hardware\DHT11.c                         0x00000000   Number         0  dht11.o ABSOLUTE
    Hardware\Key.c                           0x00000000   Number         0  key.o ABSOLUTE
    Hardware\LED.c                           0x00000000   Number         0  led.o ABSOLUTE
    Hardware\MyUSART.c                       0x00000000   Number         0  myusart.o ABSOLUTE
    Hardware\OLED.c                          0x00000000   Number         0  oled.o ABSOLUTE
    Hardware\PWM.c                           0x00000000   Number         0  pwm.o ABSOLUTE
    Hardware\bjdj.c                          0x00000000   Number         0  bjdj.o ABSOLUTE
    Library\misc.c                           0x00000000   Number         0  misc.o ABSOLUTE
    Library\stm32f10x_adc.c                  0x00000000   Number         0  stm32f10x_adc.o ABSOLUTE
    Library\stm32f10x_bkp.c                  0x00000000   Number         0  stm32f10x_bkp.o ABSOLUTE
    Library\stm32f10x_can.c                  0x00000000   Number         0  stm32f10x_can.o ABSOLUTE
    Library\stm32f10x_cec.c                  0x00000000   Number         0  stm32f10x_cec.o ABSOLUTE
    Library\stm32f10x_crc.c                  0x00000000   Number         0  stm32f10x_crc.o ABSOLUTE
    Library\stm32f10x_dac.c                  0x00000000   Number         0  stm32f10x_dac.o ABSOLUTE
    Library\stm32f10x_dbgmcu.c               0x00000000   Number         0  stm32f10x_dbgmcu.o ABSOLUTE
    Library\stm32f10x_dma.c                  0x00000000   Number         0  stm32f10x_dma.o ABSOLUTE
    Library\stm32f10x_exti.c                 0x00000000   Number         0  stm32f10x_exti.o ABSOLUTE
    Library\stm32f10x_flash.c                0x00000000   Number         0  stm32f10x_flash.o ABSOLUTE
    Library\stm32f10x_fsmc.c                 0x00000000   Number         0  stm32f10x_fsmc.o ABSOLUTE
    Library\stm32f10x_gpio.c                 0x00000000   Number         0  stm32f10x_gpio.o ABSOLUTE
    Library\stm32f10x_i2c.c                  0x00000000   Number         0  stm32f10x_i2c.o ABSOLUTE
    Library\stm32f10x_iwdg.c                 0x00000000   Number         0  stm32f10x_iwdg.o ABSOLUTE
    Library\stm32f10x_pwr.c                  0x00000000   Number         0  stm32f10x_pwr.o ABSOLUTE
    Library\stm32f10x_rcc.c                  0x00000000   Number         0  stm32f10x_rcc.o ABSOLUTE
    Library\stm32f10x_rtc.c                  0x00000000   Number         0  stm32f10x_rtc.o ABSOLUTE
    Library\stm32f10x_sdio.c                 0x00000000   Number         0  stm32f10x_sdio.o ABSOLUTE
    Library\stm32f10x_spi.c                  0x00000000   Number         0  stm32f10x_spi.o ABSOLUTE
    Library\stm32f10x_tim.c                  0x00000000   Number         0  stm32f10x_tim.o ABSOLUTE
    Library\stm32f10x_usart.c                0x00000000   Number         0  stm32f10x_usart.o ABSOLUTE
    Library\stm32f10x_wwdg.c                 0x00000000   Number         0  stm32f10x_wwdg.o ABSOLUTE
    Start\\core_cm3.c                        0x00000000   Number         0  core_cm3.o ABSOLUTE
    Start\core_cm3.c                         0x00000000   Number         0  core_cm3.o ABSOLUTE
    Start\startup_stm32f10x_md.s             0x00000000   Number         0  startup_stm32f10x_md.o ABSOLUTE
    Start\system_stm32f10x.c                 0x00000000   Number         0  system_stm32f10x.o ABSOLUTE
    System\Delay.c                           0x00000000   Number         0  delay.o ABSOLUTE
    System\Timer.c                           0x00000000   Number         0  timer.o ABSOLUTE
    System\sys.c                             0x00000000   Number         0  sys.o ABSOLUTE
    User\esp.c                               0x00000000   Number         0  esp.o ABSOLUTE
    User\main.c                              0x00000000   Number         0  main.o ABSOLUTE
    User\stm32f10x_it.c                      0x00000000   Number         0  stm32f10x_it.o ABSOLUTE
    cdcmple.s                                0x00000000   Number         0  cdcmple.o ABSOLUTE
    cdrcmple.s                               0x00000000   Number         0  cdrcmple.o ABSOLUTE
    dc.s                                     0x00000000   Number         0  dc.o ABSOLUTE
    handlers.s                               0x00000000   Number         0  handlers.o ABSOLUTE
    init.s                                   0x00000000   Number         0  init.o ABSOLUTE
    RESET                                    0x08000000   Section      236  startup_stm32f10x_md.o(RESET)
    .ARM.Collect$$$$00000000                 0x080000ec   Section        0  entry.o(.ARM.Collect$$$$00000000)
    .ARM.Collect$$$$00000001                 0x080000ec   Section        4  entry2.o(.ARM.Collect$$$$00000001)
    .ARM.Collect$$$$00000004                 0x080000f0   Section        4  entry5.o(.ARM.Collect$$$$00000004)
    .ARM.Collect$$$$00000008                 0x080000f4   Section        0  entry7b.o(.ARM.Collect$$$$00000008)
    .ARM.Collect$$$$0000000A                 0x080000f4   Section        0  entry8b.o(.ARM.Collect$$$$0000000A)
    .ARM.Collect$$$$0000000B                 0x080000f4   Section        8  entry9a.o(.ARM.Collect$$$$0000000B)
    .ARM.Collect$$$$0000000D                 0x080000fc   Section        0  entry10a.o(.ARM.Collect$$$$0000000D)
    .ARM.Collect$$$$0000000F                 0x080000fc   Section        0  entry11a.o(.ARM.Collect$$$$0000000F)
    .ARM.Collect$$$$00002712                 0x080000fc   Section        4  entry2.o(.ARM.Collect$$$$00002712)
    __lit__00000000                          0x080000fc   Data           4  entry2.o(.ARM.Collect$$$$00002712)
    .text                                    0x08000100   Section       36  startup_stm32f10x_md.o(.text)
    .text                                    0x08000124   Section        0  memseta.o(.text)
    .text                                    0x08000148   Section        0  strcmp.o(.text)
    .text                                    0x08000164   Section        0  strncmp.o(.text)
    .text                                    0x08000182   Section        0  fadd.o(.text)
    .text                                    0x08000232   Section        0  fdiv.o(.text)
    .text                                    0x080002ae   Section        0  ddiv.o(.text)
    .text                                    0x0800038c   Section        0  dfltui.o(.text)
    .text                                    0x080003a6   Section        0  ffixi.o(.text)
    .text                                    0x080003d8   Section        0  d2f.o(.text)
    .text                                    0x08000410   Section        0  uidiv.o(.text)
    .text                                    0x0800043c   Section        0  llshl.o(.text)
    .text                                    0x0800045a   Section        0  llushr.o(.text)
    .text                                    0x0800047a   Section        0  fepilogue.o(.text)
    .text                                    0x0800047a   Section        0  iusefp.o(.text)
    .text                                    0x080004e8   Section        0  depilogue.o(.text)
    .text                                    0x080005a4   Section       36  init.o(.text)
    i.ADC_Cmd                                0x080005c8   Section        0  stm32f10x_adc.o(i.ADC_Cmd)
    i.ADC_DeInit                             0x080005e0   Section        0  stm32f10x_adc.o(i.ADC_DeInit)
    i.ADC_GetCalibrationStatus               0x0800063c   Section        0  stm32f10x_adc.o(i.ADC_GetCalibrationStatus)
    i.ADC_GetConversionValue                 0x08000650   Section        0  stm32f10x_adc.o(i.ADC_GetConversionValue)
    i.ADC_GetFlagStatus                      0x08000658   Section        0  stm32f10x_adc.o(i.ADC_GetFlagStatus)
    i.ADC_GetResetCalibrationStatus          0x0800066a   Section        0  stm32f10x_adc.o(i.ADC_GetResetCalibrationStatus)
    i.ADC_Init                               0x08000680   Section        0  stm32f10x_adc.o(i.ADC_Init)
    i.ADC_RegularChannelConfig               0x080006d0   Section        0  stm32f10x_adc.o(i.ADC_RegularChannelConfig)
    i.ADC_ResetCalibration                   0x08000788   Section        0  stm32f10x_adc.o(i.ADC_ResetCalibration)
    i.ADC_SoftwareStartConvCmd               0x08000792   Section        0  stm32f10x_adc.o(i.ADC_SoftwareStartConvCmd)
    i.ADC_StartCalibration                   0x080007a8   Section        0  stm32f10x_adc.o(i.ADC_StartCalibration)
    i.Adc_Init                               0x080007b4   Section        0  ad.o(i.Adc_Init)
    i.BusFault_Handler                       0x08000854   Section        0  stm32f10x_it.o(i.BusFault_Handler)
    i.CommandAnalyse                         0x08000858   Section        0  esp.o(i.CommandAnalyse)
    i.DHT11_GetData                          0x080008f4   Section        0  dht11.o(i.DHT11_GetData)
    i.DebugMon_Handler                       0x08000a80   Section        0  stm32f10x_it.o(i.DebugMon_Handler)
    i.Delay_ms                               0x08000a82   Section        0  delay.o(i.Delay_ms)
    i.Delay_us                               0x08000a9a   Section        0  delay.o(i.Delay_us)
    i.Esp_PUB                                0x08000ac8   Section        0  esp.o(i.Esp_PUB)
    i.GPIO_Init                              0x08000b5c   Section        0  stm32f10x_gpio.o(i.GPIO_Init)
    i.GPIO_PinRemapConfig                    0x08000c74   Section        0  stm32f10x_gpio.o(i.GPIO_PinRemapConfig)
    i.GPIO_ReadInputDataBit                  0x08000d04   Section        0  stm32f10x_gpio.o(i.GPIO_ReadInputDataBit)
    i.GPIO_ResetBits                         0x08000d16   Section        0  stm32f10x_gpio.o(i.GPIO_ResetBits)
    i.GPIO_SetBits                           0x08000d1a   Section        0  stm32f10x_gpio.o(i.GPIO_SetBits)
    i.Get_Adc                                0x08000d20   Section        0  ad.o(i.Get_Adc)
    i.Get_Adc_Average                        0x08000d54   Section        0  ad.o(i.Get_Adc_Average)
    i.HardFault_Handler                      0x08000d82   Section        0  stm32f10x_it.o(i.HardFault_Handler)
    i.Init                                   0x08000d88   Section        0  main.o(i.Init)
    i.Key                                    0x08000dec   Section        0  key.o(i.Key)
    i.Key_Init                               0x08000e98   Section        0  key.o(i.Key_Init)
    i.LED_Init                               0x08000ec4   Section        0  led.o(i.LED_Init)
    i.MemManage_Handler                      0x08000f20   Section        0  stm32f10x_it.o(i.MemManage_Handler)
    i.MyUSART_Init                           0x08000f24   Section        0  myusart.o(i.MyUSART_Init)
    i.NMI_Handler                            0x08000fe4   Section        0  stm32f10x_it.o(i.NMI_Handler)
    i.NVIC_Init                              0x08000fe8   Section        0  misc.o(i.NVIC_Init)
    i.NVIC_PriorityGroupConfig               0x08001058   Section        0  misc.o(i.NVIC_PriorityGroupConfig)
    i.OLED_Clear                             0x0800106c   Section        0  oled.o(i.OLED_Clear)
    i.OLED_IIC_Start                         0x080010ac   Section        0  oled.o(i.OLED_IIC_Start)
    i.OLED_IIC_Stop                          0x080010dc   Section        0  oled.o(i.OLED_IIC_Stop)
    i.OLED_IIC_Wait_Ack                      0x08001104   Section        0  oled.o(i.OLED_IIC_Wait_Ack)
    i.OLED_Init                              0x08001120   Section        0  oled.o(i.OLED_Init)
    i.OLED_Set_Pos                           0x08001244   Section        0  oled.o(i.OLED_Set_Pos)
    i.OLED_ShowChar                          0x0800126c   Section        0  oled.o(i.OLED_ShowChar)
    i.OLED_ShowNumber                        0x08001310   Section        0  oled.o(i.OLED_ShowNumber)
    i.OLED_ShowString                        0x08001398   Section        0  oled.o(i.OLED_ShowString)
    i.OLED_WR_Byte                           0x080013ce   Section        0  oled.o(i.OLED_WR_Byte)
    i.OLED_Write_IIC_Byte                    0x080013e8   Section        0  oled.o(i.OLED_Write_IIC_Byte)
    i.OLED_Write_IIC_Command                 0x08001444   Section        0  oled.o(i.OLED_Write_IIC_Command)
    i.OLED_Write_IIC_Data                    0x08001470   Section        0  oled.o(i.OLED_Write_IIC_Data)
    i.PendSV_Handler                         0x0800149c   Section        0  stm32f10x_it.o(i.PendSV_Handler)
    i.RCC_ADCCLKConfig                       0x080014a0   Section        0  stm32f10x_rcc.o(i.RCC_ADCCLKConfig)
    i.RCC_APB1PeriphClockCmd                 0x080014b8   Section        0  stm32f10x_rcc.o(i.RCC_APB1PeriphClockCmd)
    i.RCC_APB2PeriphClockCmd                 0x080014d8   Section        0  stm32f10x_rcc.o(i.RCC_APB2PeriphClockCmd)
    i.RCC_APB2PeriphResetCmd                 0x080014f8   Section        0  stm32f10x_rcc.o(i.RCC_APB2PeriphResetCmd)
    i.RCC_GetClocksFreq                      0x08001518   Section        0  stm32f10x_rcc.o(i.RCC_GetClocksFreq)
    i.SVC_Handler                            0x080015ec   Section        0  stm32f10x_it.o(i.SVC_Handler)
    i.Senor_Using                            0x080015f0   Section        0  cs.o(i.Senor_Using)
    i.SetSysClock                            0x080016bc   Section        0  system_stm32f10x.o(i.SetSysClock)
    SetSysClock                              0x080016bd   Thumb Code     8  system_stm32f10x.o(i.SetSysClock)
    i.SetSysClockTo72                        0x080016c4   Section        0  system_stm32f10x.o(i.SetSysClockTo72)
    SetSysClockTo72                          0x080016c5   Thumb Code   214  system_stm32f10x.o(i.SetSysClockTo72)
    i.SysTick_Handler                        0x080017a4   Section        0  stm32f10x_it.o(i.SysTick_Handler)
    i.SystemInit                             0x080017a8   Section        0  system_stm32f10x.o(i.SystemInit)
    i.TIM2_IRQHandler                        0x08001808   Section        0  timer.o(i.TIM2_IRQHandler)
    i.TIM3_IRQHandler                        0x08001820   Section        0  cs.o(i.TIM3_IRQHandler)
    i.TIM3_Int_Init                          0x08001848   Section        0  cs.o(i.TIM3_Int_Init)
    i.TIM_ClearITPendingBit                  0x080018e8   Section        0  stm32f10x_tim.o(i.TIM_ClearITPendingBit)
    i.TIM_Cmd                                0x080018ee   Section        0  stm32f10x_tim.o(i.TIM_Cmd)
    i.TIM_GetCounter                         0x08001906   Section        0  stm32f10x_tim.o(i.TIM_GetCounter)
    i.TIM_GetITStatus                        0x0800190c   Section        0  stm32f10x_tim.o(i.TIM_GetITStatus)
    i.TIM_ITConfig                           0x0800192e   Section        0  stm32f10x_tim.o(i.TIM_ITConfig)
    i.TIM_TimeBaseInit                       0x08001940   Section        0  stm32f10x_tim.o(i.TIM_TimeBaseInit)
    i.USART1_IRQHandler                      0x080019e4   Section        0  myusart.o(i.USART1_IRQHandler)
    i.USART_Cmd                              0x08001a5c   Section        0  stm32f10x_usart.o(i.USART_Cmd)
    i.USART_GetFlagStatus                    0x08001a74   Section        0  stm32f10x_usart.o(i.USART_GetFlagStatus)
    i.USART_GetITStatus                      0x08001a8e   Section        0  stm32f10x_usart.o(i.USART_GetITStatus)
    i.USART_ITConfig                         0x08001ae2   Section        0  stm32f10x_usart.o(i.USART_ITConfig)
    i.USART_Init                             0x08001b2c   Section        0  stm32f10x_usart.o(i.USART_Init)
    i.USART_ReceiveData                      0x08001c04   Section        0  stm32f10x_usart.o(i.USART_ReceiveData)
    i.USART_SendData                         0x08001c0e   Section        0  stm32f10x_usart.o(i.USART_SendData)
    i.UsageFault_Handler                     0x08001c16   Section        0  stm32f10x_it.o(i.UsageFault_Handler)
    i.__0printf$3                            0x08001c1c   Section        0  printf3.o(i.__0printf$3)
    i.__scatterload_copy                     0x08001c3c   Section       14  handlers.o(i.__scatterload_copy)
    i.__scatterload_null                     0x08001c4a   Section        2  handlers.o(i.__scatterload_null)
    i.__scatterload_zeroinit                 0x08001c4c   Section       14  handlers.o(i.__scatterload_zeroinit)
    i._printf_core                           0x08001c5c   Section        0  printf3.o(i._printf_core)
    _printf_core                             0x08001c5d   Thumb Code   436  printf3.o(i._printf_core)
    i.caiji                                  0x08001e14   Section        0  main.o(i.caiji)
    i.esp_Init                               0x08001eac   Section        0  esp.o(i.esp_Init)
    i.fputc                                  0x0800207c   Section        0  esp.o(i.fputc)
    i.main                                   0x080020a0   Section        0  main.o(i.main)
    i.oled_pow                               0x080020c4   Section        0  oled.o(i.oled_pow)
    i.zhuye                                  0x080020dc   Section        0  main.o(i.zhuye)
    .constdata                               0x080021f4   Section     2072  oled.o(.constdata)
    .conststring                             0x08002a0c   Section      552  esp.o(.conststring)
    .data                                    0x20000000   Section       20  stm32f10x_rcc.o(.data)
    APBAHBPrescTable                         0x20000000   Data          16  stm32f10x_rcc.o(.data)
    ADCPrescTable                            0x20000010   Data           4  stm32f10x_rcc.o(.data)
    .data                                    0x20000014   Section        1  myusart.o(.data)
    .data                                    0x20000016   Section        2  dht11.o(.data)
    .data                                    0x20000018   Section        4  cs.o(.data)
    .data                                    0x2000001c   Section       32  main.o(.data)
    .data                                    0x2000003c   Section       56  esp.o(.data)
    .data                                    0x20000074   Section        4  stdout.o(.data)
    .bss                                     0x20000078   Section      300  myusart.o(.bss)
    .bss                                     0x200001a4   Section       15  dht11.o(.bss)
    STACK                                    0x200001b8   Section     1024  startup_stm32f10x_md.o(STACK)

    Global Symbols

    Symbol Name                              Value     Ov Type        Size  Object(Section)

    BuildAttributes$$THM_ISAv4$P$D$K$B$S$PE$A:L22UL41UL21$X:L11$S22US41US21$IEEE1$IW$USESV6$~STKCKD$USESV7$~SHL$OTIME$ROPI$EBA8$MICROLIB$REQ8$PRES8$EABIv2 0x00000000   Number         0  anon$$obj.o ABSOLUTE
    __ARM_use_no_argv                        0x00000000   Number         0  main.o ABSOLUTE
    _printf_a                                0x00000000   Number         0  stubs.o ABSOLUTE
    _printf_c                                0x00000000   Number         0  stubs.o ABSOLUTE
    _printf_charcount                        0x00000000   Number         0  stubs.o ABSOLUTE
    _printf_d                                0x00000000   Number         0  stubs.o ABSOLUTE
    _printf_e                                0x00000000   Number         0  stubs.o ABSOLUTE
    _printf_f                                0x00000000   Number         0  stubs.o ABSOLUTE
    _printf_flags                            0x00000000   Number         0  stubs.o ABSOLUTE
    _printf_fp_dec                           0x00000000   Number         0  stubs.o ABSOLUTE
    _printf_fp_hex                           0x00000000   Number         0  stubs.o ABSOLUTE
    _printf_g                                0x00000000   Number         0  stubs.o ABSOLUTE
    _printf_i                                0x00000000   Number         0  stubs.o ABSOLUTE
    _printf_int_dec                          0x00000000   Number         0  stubs.o ABSOLUTE
    _printf_l                                0x00000000   Number         0  stubs.o ABSOLUTE
    _printf_lc                               0x00000000   Number         0  stubs.o ABSOLUTE
    _printf_ll                               0x00000000   Number         0  stubs.o ABSOLUTE
    _printf_lld                              0x00000000   Number         0  stubs.o ABSOLUTE
    _printf_lli                              0x00000000   Number         0  stubs.o ABSOLUTE
    _printf_llo                              0x00000000   Number         0  stubs.o ABSOLUTE
    _printf_llu                              0x00000000   Number         0  stubs.o ABSOLUTE
    _printf_llx                              0x00000000   Number         0  stubs.o ABSOLUTE
    _printf_longlong_dec                     0x00000000   Number         0  stubs.o ABSOLUTE
    _printf_longlong_hex                     0x00000000   Number         0  stubs.o ABSOLUTE
    _printf_longlong_oct                     0x00000000   Number         0  stubs.o ABSOLUTE
    _printf_ls                               0x00000000   Number         0  stubs.o ABSOLUTE
    _printf_mbtowc                           0x00000000   Number         0  stubs.o ABSOLUTE
    _printf_n                                0x00000000   Number         0  stubs.o ABSOLUTE
    _printf_o                                0x00000000   Number         0  stubs.o ABSOLUTE
    _printf_p                                0x00000000   Number         0  stubs.o ABSOLUTE
    _printf_percent                          0x00000000   Number         0  stubs.o ABSOLUTE
    _printf_pre_padding                      0x00000000   Number         0  stubs.o ABSOLUTE
    _printf_return_value                     0x00000000   Number         0  stubs.o ABSOLUTE
    _printf_s                                0x00000000   Number         0  stubs.o ABSOLUTE
    _printf_sizespec                         0x00000000   Number         0  stubs.o ABSOLUTE
    _printf_str                              0x00000000   Number         0  stubs.o ABSOLUTE
    _printf_truncate_signed                  0x00000000   Number         0  stubs.o ABSOLUTE
    _printf_truncate_unsigned                0x00000000   Number         0  stubs.o ABSOLUTE
    _printf_u                                0x00000000   Number         0  stubs.o ABSOLUTE
    _printf_wc                               0x00000000   Number         0  stubs.o ABSOLUTE
    _printf_wctomb                           0x00000000   Number         0  stubs.o ABSOLUTE
    _printf_widthprec                        0x00000000   Number         0  stubs.o ABSOLUTE
    _printf_x                                0x00000000   Number         0  stubs.o ABSOLUTE
    __cpp_initialize__aeabi_                  - Undefined Weak Reference
    __cxa_finalize                            - Undefined Weak Reference
    __decompress                              - Undefined Weak Reference
    _clock_init                               - Undefined Weak Reference
    _microlib_exit                            - Undefined Weak Reference
    __Vectors_Size                           0x000000ec   Number         0  startup_stm32f10x_md.o ABSOLUTE
    __Vectors                                0x08000000   Data           4  startup_stm32f10x_md.o(RESET)
    __Vectors_End                            0x080000ec   Data           0  startup_stm32f10x_md.o(RESET)
    __main                                   0x080000ed   Thumb Code     0  entry.o(.ARM.Collect$$$$00000000)
    _main_stk                                0x080000ed   Thumb Code     0  entry2.o(.ARM.Collect$$$$00000001)
    _main_scatterload                        0x080000f1   Thumb Code     0  entry5.o(.ARM.Collect$$$$00000004)
    __main_after_scatterload                 0x080000f5   Thumb Code     0  entry5.o(.ARM.Collect$$$$00000004)
    _main_clock                              0x080000f5   Thumb Code     0  entry7b.o(.ARM.Collect$$$$00000008)
    _main_cpp_init                           0x080000f5   Thumb Code     0  entry8b.o(.ARM.Collect$$$$0000000A)
    _main_init                               0x080000f5   Thumb Code     0  entry9a.o(.ARM.Collect$$$$0000000B)
    __rt_final_cpp                           0x080000fd   Thumb Code     0  entry10a.o(.ARM.Collect$$$$0000000D)
    __rt_final_exit                          0x080000fd   Thumb Code     0  entry11a.o(.ARM.Collect$$$$0000000F)
    Reset_Handler                            0x08000101   Thumb Code     8  startup_stm32f10x_md.o(.text)
    ADC1_2_IRQHandler                        0x0800011b   Thumb Code     0  startup_stm32f10x_md.o(.text)
    CAN1_RX1_IRQHandler                      0x0800011b   Thumb Code     0  startup_stm32f10x_md.o(.text)
    CAN1_SCE_IRQHandler                      0x0800011b   Thumb Code     0  startup_stm32f10x_md.o(.text)
    DMA1_Channel1_IRQHandler                 0x0800011b   Thumb Code     0  startup_stm32f10x_md.o(.text)
    DMA1_Channel2_IRQHandler                 0x0800011b   Thumb Code     0  startup_stm32f10x_md.o(.text)
    DMA1_Channel3_IRQHandler                 0x0800011b   Thumb Code     0  startup_stm32f10x_md.o(.text)
    DMA1_Channel4_IRQHandler                 0x0800011b   Thumb Code     0  startup_stm32f10x_md.o(.text)
    DMA1_Channel5_IRQHandler                 0x0800011b   Thumb Code     0  startup_stm32f10x_md.o(.text)
    DMA1_Channel6_IRQHandler                 0x0800011b   Thumb Code     0  startup_stm32f10x_md.o(.text)
    DMA1_Channel7_IRQHandler                 0x0800011b   Thumb Code     0  startup_stm32f10x_md.o(.text)
    EXTI0_IRQHandler                         0x0800011b   Thumb Code     0  startup_stm32f10x_md.o(.text)
    EXTI15_10_IRQHandler                     0x0800011b   Thumb Code     0  startup_stm32f10x_md.o(.text)
    EXTI1_IRQHandler                         0x0800011b   Thumb Code     0  startup_stm32f10x_md.o(.text)
    EXTI2_IRQHandler                         0x0800011b   Thumb Code     0  startup_stm32f10x_md.o(.text)
    EXTI3_IRQHandler                         0x0800011b   Thumb Code     0  startup_stm32f10x_md.o(.text)
    EXTI4_IRQHandler                         0x0800011b   Thumb Code     0  startup_stm32f10x_md.o(.text)
    EXTI9_5_IRQHandler                       0x0800011b   Thumb Code     0  startup_stm32f10x_md.o(.text)
    FLASH_IRQHandler                         0x0800011b   Thumb Code     0  startup_stm32f10x_md.o(.text)
    I2C1_ER_IRQHandler                       0x0800011b   Thumb Code     0  startup_stm32f10x_md.o(.text)
    I2C1_EV_IRQHandler                       0x0800011b   Thumb Code     0  startup_stm32f10x_md.o(.text)
    I2C2_ER_IRQHandler                       0x0800011b   Thumb Code     0  startup_stm32f10x_md.o(.text)
    I2C2_EV_IRQHandler                       0x0800011b   Thumb Code     0  startup_stm32f10x_md.o(.text)
    PVD_IRQHandler                           0x0800011b   Thumb Code     0  startup_stm32f10x_md.o(.text)
    RCC_IRQHandler                           0x0800011b   Thumb Code     0  startup_stm32f10x_md.o(.text)
    RTCAlarm_IRQHandler                      0x0800011b   Thumb Code     0  startup_stm32f10x_md.o(.text)
    RTC_IRQHandler                           0x0800011b   Thumb Code     0  startup_stm32f10x_md.o(.text)
    SPI1_IRQHandler                          0x0800011b   Thumb Code     0  startup_stm32f10x_md.o(.text)
    SPI2_IRQHandler                          0x0800011b   Thumb Code     0  startup_stm32f10x_md.o(.text)
    TAMPER_IRQHandler                        0x0800011b   Thumb Code     0  startup_stm32f10x_md.o(.text)
    TIM1_BRK_IRQHandler                      0x0800011b   Thumb Code     0  startup_stm32f10x_md.o(.text)
    TIM1_CC_IRQHandler                       0x0800011b   Thumb Code     0  startup_stm32f10x_md.o(.text)
    TIM1_TRG_COM_IRQHandler                  0x0800011b   Thumb Code     0  startup_stm32f10x_md.o(.text)
    TIM1_UP_IRQHandler                       0x0800011b   Thumb Code     0  startup_stm32f10x_md.o(.text)
    TIM4_IRQHandler                          0x0800011b   Thumb Code     0  startup_stm32f10x_md.o(.text)
    USART2_IRQHandler                        0x0800011b   Thumb Code     0  startup_stm32f10x_md.o(.text)
    USART3_IRQHandler                        0x0800011b   Thumb Code     0  startup_stm32f10x_md.o(.text)
    USBWakeUp_IRQHandler                     0x0800011b   Thumb Code     0  startup_stm32f10x_md.o(.text)
    USB_HP_CAN1_TX_IRQHandler                0x0800011b   Thumb Code     0  startup_stm32f10x_md.o(.text)
    USB_LP_CAN1_RX0_IRQHandler               0x0800011b   Thumb Code     0  startup_stm32f10x_md.o(.text)
    WWDG_IRQHandler                          0x0800011b   Thumb Code     0  startup_stm32f10x_md.o(.text)
    __aeabi_memset                           0x08000125   Thumb Code    14  memseta.o(.text)
    __aeabi_memset4                          0x08000125   Thumb Code     0  memseta.o(.text)
    __aeabi_memset8                          0x08000125   Thumb Code     0  memseta.o(.text)
    __aeabi_memclr                           0x08000133   Thumb Code     4  memseta.o(.text)
    __aeabi_memclr4                          0x08000133   Thumb Code     0  memseta.o(.text)
    __aeabi_memclr8                          0x08000133   Thumb Code     0  memseta.o(.text)
    _memset$wrapper                          0x08000137   Thumb Code    18  memseta.o(.text)
    strcmp                                   0x08000149   Thumb Code    28  strcmp.o(.text)
    strncmp                                  0x08000165   Thumb Code    30  strncmp.o(.text)
    __aeabi_fadd                             0x08000183   Thumb Code   164  fadd.o(.text)
    __aeabi_fsub                             0x08000227   Thumb Code     6  fadd.o(.text)
    __aeabi_frsub                            0x0800022d   Thumb Code     6  fadd.o(.text)
    __aeabi_fdiv                             0x08000233   Thumb Code   124  fdiv.o(.text)
    __aeabi_ddiv                             0x080002af   Thumb Code   222  ddiv.o(.text)
    __aeabi_ui2d                             0x0800038d   Thumb Code    26  dfltui.o(.text)
    __aeabi_f2iz                             0x080003a7   Thumb Code    50  ffixi.o(.text)
    __aeabi_d2f                              0x080003d9   Thumb Code    56  d2f.o(.text)
    __aeabi_uidiv                            0x08000411   Thumb Code     0  uidiv.o(.text)
    __aeabi_uidivmod                         0x08000411   Thumb Code    44  uidiv.o(.text)
    __aeabi_llsl                             0x0800043d   Thumb Code    30  llshl.o(.text)
    _ll_shift_l                              0x0800043d   Thumb Code     0  llshl.o(.text)
    __aeabi_llsr                             0x0800045b   Thumb Code    32  llushr.o(.text)
    _ll_ushift_r                             0x0800045b   Thumb Code     0  llushr.o(.text)
    __I$use$fp                               0x0800047b   Thumb Code     0  iusefp.o(.text)
    _float_round                             0x0800047b   Thumb Code    18  fepilogue.o(.text)
    _float_epilogue                          0x0800048d   Thumb Code    92  fepilogue.o(.text)
    _double_round                            0x080004e9   Thumb Code    30  depilogue.o(.text)
    _double_epilogue                         0x08000507   Thumb Code   156  depilogue.o(.text)
    __scatterload                            0x080005a5   Thumb Code    28  init.o(.text)
    __scatterload_rt2                        0x080005a5   Thumb Code     0  init.o(.text)
    ADC_Cmd                                  0x080005c9   Thumb Code    22  stm32f10x_adc.o(i.ADC_Cmd)
    ADC_DeInit                               0x080005e1   Thumb Code    78  stm32f10x_adc.o(i.ADC_DeInit)
    ADC_GetCalibrationStatus                 0x0800063d   Thumb Code    20  stm32f10x_adc.o(i.ADC_GetCalibrationStatus)
    ADC_GetConversionValue                   0x08000651   Thumb Code     8  stm32f10x_adc.o(i.ADC_GetConversionValue)
    ADC_GetFlagStatus                        0x08000659   Thumb Code    18  stm32f10x_adc.o(i.ADC_GetFlagStatus)
    ADC_GetResetCalibrationStatus            0x0800066b   Thumb Code    20  stm32f10x_adc.o(i.ADC_GetResetCalibrationStatus)
    ADC_Init                                 0x08000681   Thumb Code    70  stm32f10x_adc.o(i.ADC_Init)
    ADC_RegularChannelConfig                 0x080006d1   Thumb Code   184  stm32f10x_adc.o(i.ADC_RegularChannelConfig)
    ADC_ResetCalibration                     0x08000789   Thumb Code    10  stm32f10x_adc.o(i.ADC_ResetCalibration)
    ADC_SoftwareStartConvCmd                 0x08000793   Thumb Code    22  stm32f10x_adc.o(i.ADC_SoftwareStartConvCmd)
    ADC_StartCalibration                     0x080007a9   Thumb Code    10  stm32f10x_adc.o(i.ADC_StartCalibration)
    Adc_Init                                 0x080007b5   Thumb Code   152  ad.o(i.Adc_Init)
    BusFault_Handler                         0x08000855   Thumb Code     4  stm32f10x_it.o(i.BusFault_Handler)
    CommandAnalyse                           0x08000859   Thumb Code   118  esp.o(i.CommandAnalyse)
    DHT11_GetData                            0x080008f5   Thumb Code   384  dht11.o(i.DHT11_GetData)
    DebugMon_Handler                         0x08000a81   Thumb Code     2  stm32f10x_it.o(i.DebugMon_Handler)
    Delay_ms                                 0x08000a83   Thumb Code    24  delay.o(i.Delay_ms)
    Delay_us                                 0x08000a9b   Thumb Code    46  delay.o(i.Delay_us)
    Esp_PUB                                  0x08000ac9   Thumb Code    94  esp.o(i.Esp_PUB)
    GPIO_Init                                0x08000b5d   Thumb Code   278  stm32f10x_gpio.o(i.GPIO_Init)
    GPIO_PinRemapConfig                      0x08000c75   Thumb Code   138  stm32f10x_gpio.o(i.GPIO_PinRemapConfig)
    GPIO_ReadInputDataBit                    0x08000d05   Thumb Code    18  stm32f10x_gpio.o(i.GPIO_ReadInputDataBit)
    GPIO_ResetBits                           0x08000d17   Thumb Code     4  stm32f10x_gpio.o(i.GPIO_ResetBits)
    GPIO_SetBits                             0x08000d1b   Thumb Code     4  stm32f10x_gpio.o(i.GPIO_SetBits)
    Get_Adc                                  0x08000d21   Thumb Code    46  ad.o(i.Get_Adc)
    Get_Adc_Average                          0x08000d55   Thumb Code    46  ad.o(i.Get_Adc_Average)
    HardFault_Handler                        0x08000d83   Thumb Code     4  stm32f10x_it.o(i.HardFault_Handler)
    Init                                     0x08000d89   Thumb Code    70  main.o(i.Init)
    Key                                      0x08000ded   Thumb Code   168  key.o(i.Key)
    Key_Init                                 0x08000e99   Thumb Code    40  key.o(i.Key_Init)
    LED_Init                                 0x08000ec5   Thumb Code    88  led.o(i.LED_Init)
    MemManage_Handler                        0x08000f21   Thumb Code     4  stm32f10x_it.o(i.MemManage_Handler)
    MyUSART_Init                             0x08000f25   Thumb Code   184  myusart.o(i.MyUSART_Init)
    NMI_Handler                              0x08000fe5   Thumb Code     2  stm32f10x_it.o(i.NMI_Handler)
    NVIC_Init                                0x08000fe9   Thumb Code   100  misc.o(i.NVIC_Init)
    NVIC_PriorityGroupConfig                 0x08001059   Thumb Code    10  misc.o(i.NVIC_PriorityGroupConfig)
    OLED_Clear                               0x0800106d   Thumb Code    62  oled.o(i.OLED_Clear)
    OLED_IIC_Start                           0x080010ad   Thumb Code    44  oled.o(i.OLED_IIC_Start)
    OLED_IIC_Stop                            0x080010dd   Thumb Code    34  oled.o(i.OLED_IIC_Stop)
    OLED_IIC_Wait_Ack                        0x08001105   Thumb Code    24  oled.o(i.OLED_IIC_Wait_Ack)
    OLED_Init                                0x08001121   Thumb Code   282  oled.o(i.OLED_Init)
    OLED_Set_Pos                             0x08001245   Thumb Code    40  oled.o(i.OLED_Set_Pos)
    OLED_ShowChar                            0x0800126d   Thumb Code   154  oled.o(i.OLED_ShowChar)
    OLED_ShowNumber                          0x08001311   Thumb Code   136  oled.o(i.OLED_ShowNumber)
    OLED_ShowString                          0x08001399   Thumb Code    54  oled.o(i.OLED_ShowString)
    OLED_WR_Byte                             0x080013cf   Thumb Code    24  oled.o(i.OLED_WR_Byte)
    OLED_Write_IIC_Byte                      0x080013e9   Thumb Code    88  oled.o(i.OLED_Write_IIC_Byte)
    OLED_Write_IIC_Command                   0x08001445   Thumb Code    44  oled.o(i.OLED_Write_IIC_Command)
    OLED_Write_IIC_Data                      0x08001471   Thumb Code    44  oled.o(i.OLED_Write_IIC_Data)
    PendSV_Handler                           0x0800149d   Thumb Code     2  stm32f10x_it.o(i.PendSV_Handler)
    RCC_ADCCLKConfig                         0x080014a1   Thumb Code    18  stm32f10x_rcc.o(i.RCC_ADCCLKConfig)
    RCC_APB1PeriphClockCmd                   0x080014b9   Thumb Code    26  stm32f10x_rcc.o(i.RCC_APB1PeriphClockCmd)
    RCC_APB2PeriphClockCmd                   0x080014d9   Thumb Code    26  stm32f10x_rcc.o(i.RCC_APB2PeriphClockCmd)
    RCC_APB2PeriphResetCmd                   0x080014f9   Thumb Code    26  stm32f10x_rcc.o(i.RCC_APB2PeriphResetCmd)
    RCC_GetClocksFreq                        0x08001519   Thumb Code   192  stm32f10x_rcc.o(i.RCC_GetClocksFreq)
    SVC_Handler                              0x080015ed   Thumb Code     2  stm32f10x_it.o(i.SVC_Handler)
    Senor_Using                              0x080015f1   Thumb Code   176  cs.o(i.Senor_Using)
    SysTick_Handler                          0x080017a5   Thumb Code     2  stm32f10x_it.o(i.SysTick_Handler)
    SystemInit                               0x080017a9   Thumb Code    78  system_stm32f10x.o(i.SystemInit)
    TIM2_IRQHandler                          0x08001809   Thumb Code    24  timer.o(i.TIM2_IRQHandler)
    TIM3_IRQHandler                          0x08001821   Thumb Code    32  cs.o(i.TIM3_IRQHandler)
    TIM3_Int_Init                            0x08001849   Thumb Code   150  cs.o(i.TIM3_Int_Init)
    TIM_ClearITPendingBit                    0x080018e9   Thumb Code     6  stm32f10x_tim.o(i.TIM_ClearITPendingBit)
    TIM_Cmd                                  0x080018ef   Thumb Code    24  stm32f10x_tim.o(i.TIM_Cmd)
    TIM_GetCounter                           0x08001907   Thumb Code     6  stm32f10x_tim.o(i.TIM_GetCounter)
    TIM_GetITStatus                          0x0800190d   Thumb Code    34  stm32f10x_tim.o(i.TIM_GetITStatus)
    TIM_ITConfig                             0x0800192f   Thumb Code    18  stm32f10x_tim.o(i.TIM_ITConfig)
    TIM_TimeBaseInit                         0x08001941   Thumb Code   122  stm32f10x_tim.o(i.TIM_TimeBaseInit)
    USART1_IRQHandler                        0x080019e5   Thumb Code   106  myusart.o(i.USART1_IRQHandler)
    USART_Cmd                                0x08001a5d   Thumb Code    24  stm32f10x_usart.o(i.USART_Cmd)
    USART_GetFlagStatus                      0x08001a75   Thumb Code    26  stm32f10x_usart.o(i.USART_GetFlagStatus)
    USART_GetITStatus                        0x08001a8f   Thumb Code    84  stm32f10x_usart.o(i.USART_GetITStatus)
    USART_ITConfig                           0x08001ae3   Thumb Code    74  stm32f10x_usart.o(i.USART_ITConfig)
    USART_Init                               0x08001b2d   Thumb Code   210  stm32f10x_usart.o(i.USART_Init)
    USART_ReceiveData                        0x08001c05   Thumb Code    10  stm32f10x_usart.o(i.USART_ReceiveData)
    USART_SendData                           0x08001c0f   Thumb Code     8  stm32f10x_usart.o(i.USART_SendData)
    UsageFault_Handler                       0x08001c17   Thumb Code     4  stm32f10x_it.o(i.UsageFault_Handler)
    __0printf$3                              0x08001c1d   Thumb Code    22  printf3.o(i.__0printf$3)
    __1printf$3                              0x08001c1d   Thumb Code     0  printf3.o(i.__0printf$3)
    __2printf                                0x08001c1d   Thumb Code     0  printf3.o(i.__0printf$3)
    __scatterload_copy                       0x08001c3d   Thumb Code    14  handlers.o(i.__scatterload_copy)
    __scatterload_null                       0x08001c4b   Thumb Code     2  handlers.o(i.__scatterload_null)
    __scatterload_zeroinit                   0x08001c4d   Thumb Code    14  handlers.o(i.__scatterload_zeroinit)
    caiji                                    0x08001e15   Thumb Code   122  main.o(i.caiji)
    esp_Init                                 0x08001ead   Thumb Code   272  esp.o(i.esp_Init)
    fputc                                    0x0800207d   Thumb Code    32  esp.o(i.fputc)
    main                                     0x080020a1   Thumb Code    36  main.o(i.main)
    oled_pow                                 0x080020c5   Thumb Code    22  oled.o(i.oled_pow)
    zhuye                                    0x080020dd   Thumb Code   190  main.o(i.zhuye)
    F6x8                                     0x080021f4   Data         552  oled.o(.constdata)
    F8X16                                    0x0800241c   Data        1520  oled.o(.constdata)
    Region$$Table$$Base                      0x08002c34   Number         0  anon$$obj.o(Region$$Table)
    Region$$Table$$Limit                     0x08002c54   Number         0  anon$$obj.o(Region$$Table)
    i                                        0x20000014   Data           1  myusart.o(.data)
    dhti                                     0x20000016   Data           2  dht11.o(.data)
    overcount                                0x20000018   Data           4  cs.o(.data)
    Temperature                              0x2000001c   Data           4  main.o(.data)
    Shidu                                    0x20000020   Data           4  main.o(.data)
    YW                                       0x20000024   Data           4  main.o(.data)
    Distance                                 0x20000028   Data           2  main.o(.data)
    Switch1                                  0x2000002a   Data           1  main.o(.data)
    Switch2                                  0x2000002b   Data           1  main.o(.data)
    KeyNum                                   0x2000002c   Data           1  main.o(.data)
    cnt                                      0x2000002e   Data           2  main.o(.data)
    num                                      0x20000030   Data           1  main.o(.data)
    num_A                                    0x20000031   Data           1  main.o(.data)
    CS_Float                                 0x20000032   Data           1  main.o(.data)
    T_yuzhi                                  0x20000034   Data           2  main.o(.data)
    S_yuzhi                                  0x20000036   Data           2  main.o(.data)
    YW_yuzhi                                 0x20000038   Data           2  main.o(.data)
    CS_yuzhi                                 0x2000003a   Data           2  main.o(.data)
    WIFI                                     0x2000003c   Data           4  esp.o(.data)
    WIFIASSWORD                              0x20000040   Data           4  esp.o(.data)
    ClintID                                  0x20000044   Data           4  esp.o(.data)
    username                                 0x20000048   Data           4  esp.o(.data)
    passwd                                   0x2000004c   Data           4  esp.o(.data)
    Url                                      0x20000050   Data           4  esp.o(.data)
    pubtopic                                 0x20000054   Data           4  esp.o(.data)
    subtopic                                 0x20000058   Data           4  esp.o(.data)
    func1                                    0x2000005c   Data           4  esp.o(.data)
    func2                                    0x20000060   Data           4  esp.o(.data)
    func3                                    0x20000064   Data           4  esp.o(.data)
    func4                                    0x20000068   Data           4  esp.o(.data)
    func5                                    0x2000006c   Data           4  esp.o(.data)
    func6                                    0x20000070   Data           4  esp.o(.data)
    __stdout                                 0x20000074   Data           4  stdout.o(.data)
    RECS                                     0x20000078   Data         300  myusart.o(.bss)
    Data                                     0x200001a4   Data          15  dht11.o(.bss)
    __initial_sp                             0x200005b8   Data           0  startup_stm32f10x_md.o(STACK)



==============================================================================

Memory Map of the image

  Image Entry point : 0x08000101

  Load Region LR_1 (Base: 0x08000000, Size: 0x00002ccc, Max: 0xffffffff, ABSOLUTE)

    Execution Region ER_RO (Exec base: 0x08000000, Load base: 0x08000000, Size: 0x00002c54, Max: 0xffffffff, ABSOLUTE)

    Exec Addr    Load Addr    Size         Type   Attr      Idx    E Section Name        Object

    0x08000000   0x08000000   0x000000ec   Data   RO           19    RESET               startup_stm32f10x_md.o
    0x080000ec   0x080000ec   0x00000000   Code   RO         3843  * .ARM.Collect$$$$00000000  mc_w.l(entry.o)
    0x080000ec   0x080000ec   0x00000004   Code   RO         4137    .ARM.Collect$$$$00000001  mc_w.l(entry2.o)
    0x080000f0   0x080000f0   0x00000004   Code   RO         4140    .ARM.Collect$$$$00000004  mc_w.l(entry5.o)
    0x080000f4   0x080000f4   0x00000000   Code   RO         4142    .ARM.Collect$$$$00000008  mc_w.l(entry7b.o)
    0x080000f4   0x080000f4   0x00000000   Code   RO         4144    .ARM.Collect$$$$0000000A  mc_w.l(entry8b.o)
    0x080000f4   0x080000f4   0x00000008   Code   RO         4145    .ARM.Collect$$$$0000000B  mc_w.l(entry9a.o)
    0x080000fc   0x080000fc   0x00000000   Code   RO         4147    .ARM.Collect$$$$0000000D  mc_w.l(entry10a.o)
    0x080000fc   0x080000fc   0x00000000   Code   RO         4149    .ARM.Collect$$$$0000000F  mc_w.l(entry11a.o)
    0x080000fc   0x080000fc   0x00000004   Code   RO         4138    .ARM.Collect$$$$00002712  mc_w.l(entry2.o)
    0x08000100   0x08000100   0x00000024   Code   RO           20  * .text               startup_stm32f10x_md.o
    0x08000124   0x08000124   0x00000024   Code   RO         3846    .text               mc_w.l(memseta.o)
    0x08000148   0x08000148   0x0000001c   Code   RO         3848    .text               mc_w.l(strcmp.o)
    0x08000164   0x08000164   0x0000001e   Code   RO         3850    .text               mc_w.l(strncmp.o)
    0x08000182   0x08000182   0x000000b0   Code   RO         4113    .text               mf_w.l(fadd.o)
    0x08000232   0x08000232   0x0000007c   Code   RO         4115    .text               mf_w.l(fdiv.o)
    0x080002ae   0x080002ae   0x000000de   Code   RO         4121    .text               mf_w.l(ddiv.o)
    0x0800038c   0x0800038c   0x0000001a   Code   RO         4125    .text               mf_w.l(dfltui.o)
    0x080003a6   0x080003a6   0x00000032   Code   RO         4127    .text               mf_w.l(ffixi.o)
    0x080003d8   0x080003d8   0x00000038   Code   RO         4135    .text               mf_w.l(d2f.o)
    0x08000410   0x08000410   0x0000002c   Code   RO         4152    .text               mc_w.l(uidiv.o)
    0x0800043c   0x0800043c   0x0000001e   Code   RO         4156    .text               mc_w.l(llshl.o)
    0x0800045a   0x0800045a   0x00000020   Code   RO         4158    .text               mc_w.l(llushr.o)
    0x0800047a   0x0800047a   0x00000000   Code   RO         4162    .text               mc_w.l(iusefp.o)
    0x0800047a   0x0800047a   0x0000006e   Code   RO         4163    .text               mf_w.l(fepilogue.o)
    0x080004e8   0x080004e8   0x000000ba   Code   RO         4165    .text               mf_w.l(depilogue.o)
    0x080005a2   0x080005a2   0x00000002   PAD
    0x080005a4   0x080005a4   0x00000024   Code   RO         4171    .text               mc_w.l(init.o)
    0x080005c8   0x080005c8   0x00000016   Code   RO          202    i.ADC_Cmd           stm32f10x_adc.o
    0x080005de   0x080005de   0x00000002   PAD
    0x080005e0   0x080005e0   0x0000005c   Code   RO          204    i.ADC_DeInit        stm32f10x_adc.o
    0x0800063c   0x0800063c   0x00000014   Code   RO          210    i.ADC_GetCalibrationStatus  stm32f10x_adc.o
    0x08000650   0x08000650   0x00000008   Code   RO          211    i.ADC_GetConversionValue  stm32f10x_adc.o
    0x08000658   0x08000658   0x00000012   Code   RO          213    i.ADC_GetFlagStatus  stm32f10x_adc.o
    0x0800066a   0x0800066a   0x00000014   Code   RO          216    i.ADC_GetResetCalibrationStatus  stm32f10x_adc.o
    0x0800067e   0x0800067e   0x00000002   PAD
    0x08000680   0x08000680   0x00000050   Code   RO          220    i.ADC_Init          stm32f10x_adc.o
    0x080006d0   0x080006d0   0x000000b8   Code   RO          224    i.ADC_RegularChannelConfig  stm32f10x_adc.o
    0x08000788   0x08000788   0x0000000a   Code   RO          225    i.ADC_ResetCalibration  stm32f10x_adc.o
    0x08000792   0x08000792   0x00000016   Code   RO          227    i.ADC_SoftwareStartConvCmd  stm32f10x_adc.o
    0x080007a8   0x080007a8   0x0000000a   Code   RO          229    i.ADC_StartCalibration  stm32f10x_adc.o
    0x080007b2   0x080007b2   0x00000002   PAD
    0x080007b4   0x080007b4   0x000000a0   Code   RO         3309    i.Adc_Init          ad.o
    0x08000854   0x08000854   0x00000004   Code   RO         3739    i.BusFault_Handler  stm32f10x_it.o
    0x08000858   0x08000858   0x0000009c   Code   RO         3802    i.CommandAnalyse    esp.o
    0x080008f4   0x080008f4   0x0000018c   Code   RO         3284    i.DHT11_GetData     dht11.o
    0x08000a80   0x08000a80   0x00000002   Code   RO         3740    i.DebugMon_Handler  stm32f10x_it.o
    0x08000a82   0x08000a82   0x00000018   Code   RO         3610    i.Delay_ms          delay.o
    0x08000a9a   0x08000a9a   0x0000002e   Code   RO         3612    i.Delay_us          delay.o
    0x08000ac8   0x08000ac8   0x00000094   Code   RO         3803    i.Esp_PUB           esp.o
    0x08000b5c   0x08000b5c   0x00000116   Code   RO         1347    i.GPIO_Init         stm32f10x_gpio.o
    0x08000c72   0x08000c72   0x00000002   PAD
    0x08000c74   0x08000c74   0x00000090   Code   RO         1349    i.GPIO_PinRemapConfig  stm32f10x_gpio.o
    0x08000d04   0x08000d04   0x00000012   Code   RO         1351    i.GPIO_ReadInputDataBit  stm32f10x_gpio.o
    0x08000d16   0x08000d16   0x00000004   Code   RO         1354    i.GPIO_ResetBits    stm32f10x_gpio.o
    0x08000d1a   0x08000d1a   0x00000004   Code   RO         1355    i.GPIO_SetBits      stm32f10x_gpio.o
    0x08000d1e   0x08000d1e   0x00000002   PAD
    0x08000d20   0x08000d20   0x00000034   Code   RO         3310    i.Get_Adc           ad.o
    0x08000d54   0x08000d54   0x0000002e   Code   RO         3311    i.Get_Adc_Average   ad.o
    0x08000d82   0x08000d82   0x00000004   Code   RO         3741    i.HardFault_Handler  stm32f10x_it.o
    0x08000d86   0x08000d86   0x00000002   PAD
    0x08000d88   0x08000d88   0x00000064   Code   RO         3658    i.Init              main.o
    0x08000dec   0x08000dec   0x000000ac   Code   RO         3196    i.Key               key.o
    0x08000e98   0x08000e98   0x0000002c   Code   RO         3197    i.Key_Init          key.o
    0x08000ec4   0x08000ec4   0x0000005c   Code   RO         3218    i.LED_Init          led.o
    0x08000f20   0x08000f20   0x00000004   Code   RO         3742    i.MemManage_Handler  stm32f10x_it.o
    0x08000f24   0x08000f24   0x000000c0   Code   RO         3242    i.MyUSART_Init      myusart.o
    0x08000fe4   0x08000fe4   0x00000002   Code   RO         3743    i.NMI_Handler       stm32f10x_it.o
    0x08000fe6   0x08000fe6   0x00000002   PAD
    0x08000fe8   0x08000fe8   0x00000070   Code   RO          137    i.NVIC_Init         misc.o
    0x08001058   0x08001058   0x00000014   Code   RO          138    i.NVIC_PriorityGroupConfig  misc.o
    0x0800106c   0x0800106c   0x0000003e   Code   RO         3413    i.OLED_Clear        oled.o
    0x080010aa   0x080010aa   0x00000002   PAD
    0x080010ac   0x080010ac   0x00000030   Code   RO         3419    i.OLED_IIC_Start    oled.o
    0x080010dc   0x080010dc   0x00000028   Code   RO         3420    i.OLED_IIC_Stop     oled.o
    0x08001104   0x08001104   0x0000001c   Code   RO         3421    i.OLED_IIC_Wait_Ack  oled.o
    0x08001120   0x08001120   0x00000124   Code   RO         3422    i.OLED_Init         oled.o
    0x08001244   0x08001244   0x00000028   Code   RO         3429    i.OLED_Set_Pos      oled.o
    0x0800126c   0x0800126c   0x000000a4   Code   RO         3431    i.OLED_ShowChar     oled.o
    0x08001310   0x08001310   0x00000088   Code   RO         3432    i.OLED_ShowNumber   oled.o
    0x08001398   0x08001398   0x00000036   Code   RO         3433    i.OLED_ShowString   oled.o
    0x080013ce   0x080013ce   0x00000018   Code   RO         3434    i.OLED_WR_Byte      oled.o
    0x080013e6   0x080013e6   0x00000002   PAD
    0x080013e8   0x080013e8   0x0000005c   Code   RO         3435    i.OLED_Write_IIC_Byte  oled.o
    0x08001444   0x08001444   0x0000002c   Code   RO         3436    i.OLED_Write_IIC_Command  oled.o
    0x08001470   0x08001470   0x0000002c   Code   RO         3437    i.OLED_Write_IIC_Data  oled.o
    0x0800149c   0x0800149c   0x00000002   Code   RO         3744    i.PendSV_Handler    stm32f10x_it.o
    0x0800149e   0x0800149e   0x00000002   PAD
    0x080014a0   0x080014a0   0x00000018   Code   RO         1773    i.RCC_ADCCLKConfig  stm32f10x_rcc.o
    0x080014b8   0x080014b8   0x00000020   Code   RO         1775    i.RCC_APB1PeriphClockCmd  stm32f10x_rcc.o
    0x080014d8   0x080014d8   0x00000020   Code   RO         1777    i.RCC_APB2PeriphClockCmd  stm32f10x_rcc.o
    0x080014f8   0x080014f8   0x00000020   Code   RO         1778    i.RCC_APB2PeriphResetCmd  stm32f10x_rcc.o
    0x08001518   0x08001518   0x000000d4   Code   RO         1785    i.RCC_GetClocksFreq  stm32f10x_rcc.o
    0x080015ec   0x080015ec   0x00000002   Code   RO         3745    i.SVC_Handler       stm32f10x_it.o
    0x080015ee   0x080015ee   0x00000002   PAD
    0x080015f0   0x080015f0   0x000000cc   Code   RO         3381    i.Senor_Using       cs.o
    0x080016bc   0x080016bc   0x00000008   Code   RO           24    i.SetSysClock       system_stm32f10x.o
    0x080016c4   0x080016c4   0x000000e0   Code   RO           25    i.SetSysClockTo72   system_stm32f10x.o
    0x080017a4   0x080017a4   0x00000002   Code   RO         3746    i.SysTick_Handler   stm32f10x_it.o
    0x080017a6   0x080017a6   0x00000002   PAD
    0x080017a8   0x080017a8   0x00000060   Code   RO           27    i.SystemInit        system_stm32f10x.o
    0x08001808   0x08001808   0x00000018   Code   RO         3634    i.TIM2_IRQHandler   timer.o
    0x08001820   0x08001820   0x00000028   Code   RO         3382    i.TIM3_IRQHandler   cs.o
    0x08001848   0x08001848   0x000000a0   Code   RO         3383    i.TIM3_Int_Init     cs.o
    0x080018e8   0x080018e8   0x00000006   Code   RO         2416    i.TIM_ClearITPendingBit  stm32f10x_tim.o
    0x080018ee   0x080018ee   0x00000018   Code   RO         2421    i.TIM_Cmd           stm32f10x_tim.o
    0x08001906   0x08001906   0x00000006   Code   RO         2440    i.TIM_GetCounter    stm32f10x_tim.o
    0x0800190c   0x0800190c   0x00000022   Code   RO         2442    i.TIM_GetITStatus   stm32f10x_tim.o
    0x0800192e   0x0800192e   0x00000012   Code   RO         2446    i.TIM_ITConfig      stm32f10x_tim.o
    0x08001940   0x08001940   0x000000a4   Code   RO         2492    i.TIM_TimeBaseInit  stm32f10x_tim.o
    0x080019e4   0x080019e4   0x00000078   Code   RO         3244    i.USART1_IRQHandler  myusart.o
    0x08001a5c   0x08001a5c   0x00000018   Code   RO         2960    i.USART_Cmd         stm32f10x_usart.o
    0x08001a74   0x08001a74   0x0000001a   Code   RO         2963    i.USART_GetFlagStatus  stm32f10x_usart.o
    0x08001a8e   0x08001a8e   0x00000054   Code   RO         2964    i.USART_GetITStatus  stm32f10x_usart.o
    0x08001ae2   0x08001ae2   0x0000004a   Code   RO         2966    i.USART_ITConfig    stm32f10x_usart.o
    0x08001b2c   0x08001b2c   0x000000d8   Code   RO         2967    i.USART_Init        stm32f10x_usart.o
    0x08001c04   0x08001c04   0x0000000a   Code   RO         2974    i.USART_ReceiveData  stm32f10x_usart.o
    0x08001c0e   0x08001c0e   0x00000008   Code   RO         2977    i.USART_SendData    stm32f10x_usart.o
    0x08001c16   0x08001c16   0x00000004   Code   RO         3747    i.UsageFault_Handler  stm32f10x_it.o
    0x08001c1a   0x08001c1a   0x00000002   PAD
    0x08001c1c   0x08001c1c   0x00000020   Code   RO         3941    i.__0printf$3       mc_w.l(printf3.o)
    0x08001c3c   0x08001c3c   0x0000000e   Code   RO         4175    i.__scatterload_copy  mc_w.l(handlers.o)
    0x08001c4a   0x08001c4a   0x00000002   Code   RO         4176    i.__scatterload_null  mc_w.l(handlers.o)
    0x08001c4c   0x08001c4c   0x0000000e   Code   RO         4177    i.__scatterload_zeroinit  mc_w.l(handlers.o)
    0x08001c5a   0x08001c5a   0x00000002   PAD
    0x08001c5c   0x08001c5c   0x000001b8   Code   RO         3948    i._printf_core      mc_w.l(printf3.o)
    0x08001e14   0x08001e14   0x00000098   Code   RO         3659    i.caiji             main.o
    0x08001eac   0x08001eac   0x000001d0   Code   RO         3804    i.esp_Init          esp.o
    0x0800207c   0x0800207c   0x00000024   Code   RO         3805    i.fputc             esp.o
    0x080020a0   0x080020a0   0x00000024   Code   RO         3660    i.main              main.o
    0x080020c4   0x080020c4   0x00000016   Code   RO         3440    i.oled_pow          oled.o
    0x080020da   0x080020da   0x00000002   PAD
    0x080020dc   0x080020dc   0x00000118   Code   RO         3662    i.zhuye             main.o
    0x080021f4   0x080021f4   0x00000818   Data   RO         3441    .constdata          oled.o
    0x08002a0c   0x08002a0c   0x00000228   Data   RO         3806    .conststring        esp.o
    0x08002c34   0x08002c34   0x00000020   Data   RO         4173    Region$$Table       anon$$obj.o


    Execution Region ER_RW (Exec base: 0x20000000, Load base: 0x08002c54, Size: 0x00000078, Max: 0xffffffff, ABSOLUTE)

    Exec Addr    Load Addr    Size         Type   Attr      Idx    E Section Name        Object

    0x20000000   0x08002c54   0x00000014   Data   RW         1805    .data               stm32f10x_rcc.o
    0x20000014   0x08002c68   0x00000001   Data   RW         3246    .data               myusart.o
    0x20000015   0x08002c69   0x00000001   PAD
    0x20000016   0x08002c6a   0x00000002   Data   RW         3286    .data               dht11.o
    0x20000018   0x08002c6c   0x00000004   Data   RW         3384    .data               cs.o
    0x2000001c   0x08002c70   0x00000020   Data   RW         3664    .data               main.o
    0x2000003c   0x08002c90   0x00000038   Data   RW         3807    .data               esp.o
    0x20000074   0x08002cc8   0x00000004   Data   RW         4151    .data               mc_w.l(stdout.o)


    Execution Region ER_ZI (Exec base: 0x20000078, Load base: 0x08002ccc, Size: 0x00000540, Max: 0xffffffff, ABSOLUTE)

    Exec Addr    Load Addr    Size         Type   Attr      Idx    E Section Name        Object

    0x20000078        -       0x0000012c   Zero   RW         3245    .bss                myusart.o
    0x200001a4        -       0x0000000f   Zero   RW         3285    .bss                dht11.o
    0x200001b3   0x08002ccc   0x00000005   PAD
    0x200001b8        -       0x00000400   Zero   RW           17    STACK               startup_stm32f10x_md.o


==============================================================================

Image component sizes


      Code (inc. data)   RO Data    RW Data    ZI Data      Debug   Object Name

       258         14          0          0          0       1683   ad.o
         0          0          0          0          0       4532   core_cm3.o
       404         46          0          4          0       1948   cs.o
        70          0          0          0          0        906   delay.o
       396         12          0          2         15       1444   dht11.o
       804        288        552         56          0       2743   esp.o
       216          8          0          0          0        977   key.o
        92          4          0          0          0        471   led.o
       568        150          0         32          0       3959   main.o
       132         22          0          0          0     213707   misc.o
       312         22          0          1        300       1732   myusart.o
      1090         38       2072          0          0       8869   oled.o
        36          8        236          0       1024        764   startup_stm32f10x_md.o
       486         24          0          0          0      18682   stm32f10x_adc.o
       448          6          0          0          0      12522   stm32f10x_gpio.o
        26          0          0          0          0       3650   stm32f10x_it.o
       332         44          0         20          0      13930   stm32f10x_rcc.o
       252         42          0          0          0      24063   stm32f10x_tim.o
       442          6          0          0          0      11789   stm32f10x_usart.o
       328         28          0          0          0      45137   system_stm32f10x.o
        24          0          0          0          0        426   timer.o

    ----------------------------------------------------------------------
      6744        762       2892        116       1344     373934   Object Totals
         0          0         32          0          0          0   (incl. Generated)
        28          0          0          1          5          0   (incl. Padding)

    ----------------------------------------------------------------------

      Code (inc. data)   RO Data    RW Data    ZI Data      Debug   Library Member Name

         0          0          0          0          0          0   entry.o
         0          0          0          0          0          0   entry10a.o
         0          0          0          0          0          0   entry11a.o
         8          4          0          0          0          0   entry2.o
         4          0          0          0          0          0   entry5.o
         0          0          0          0          0          0   entry7b.o
         0          0          0          0          0          0   entry8b.o
         8          4          0          0          0          0   entry9a.o
        30          0          0          0          0          0   handlers.o
        36          8          0          0          0         68   init.o
         0          0          0          0          0          0   iusefp.o
        30          0          0          0          0         68   llshl.o
        32          0          0          0          0         68   llushr.o
        36          0          0          0          0        108   memseta.o
       472         14          0          0          0        184   printf3.o
         0          0          0          4          0          0   stdout.o
        28          0          0          0          0         76   strcmp.o
        30          0          0          0          0         80   strncmp.o
        44          0          0          0          0         80   uidiv.o
        56          0          0          0          0         88   d2f.o
       222          0          0          0          0        100   ddiv.o
       186          0          0          0          0        176   depilogue.o
        26          0          0          0          0         76   dfltui.o
       176          0          0          0          0        140   fadd.o
       124          0          0          0          0         88   fdiv.o
       110          0          0          0          0        168   fepilogue.o
        50          0          0          0          0         68   ffixi.o

    ----------------------------------------------------------------------
      1712         30          0          4          0       1636   Library Totals
         4          0          0          0          0          0   (incl. Padding)

    ----------------------------------------------------------------------

      Code (inc. data)   RO Data    RW Data    ZI Data      Debug   Library Name

       758         30          0          4          0        732   mc_w.l
       950          0          0          0          0        904   mf_w.l

    ----------------------------------------------------------------------
      1712         30          0          4          0       1636   Library Totals

    ----------------------------------------------------------------------

==============================================================================


      Code (inc. data)   RO Data    RW Data    ZI Data      Debug   

      8456        792       2892        120       1344     370730   Grand Totals
      8456        792       2892        120       1344     370730   ELF Image Totals
      8456        792       2892        120          0          0   ROM Totals

==============================================================================

    Total RO  Size (Code + RO Data)                11348 (  11.08kB)
    Total RW  Size (RW Data + ZI Data)              1464 (   1.43kB)
    Total ROM Size (Code + RO Data + RW Data)      11468 (  11.20kB)

==============================================================================

